{
  "_format": "hh-sol-artifact-1",
  "contractName": "StrawPoll",
  "sourceName": "contracts/StrawPoll.sol",
  "abi": [
    {
      "inputs": [
        {
          "internalType": "string",
          "name": "_uri",
          "type": "string"
        },
        {
          "internalType": "address",
          "name": "_proposer",
          "type": "address"
        }
      ],
      "name": "addProposal",
      "outputs": [],
      "stateMutability": "nonpayable",
      "type": "function"
    },
    {
      "inputs": [
        {
          "internalType": "string",
          "name": "_uri",
          "type": "string"
        },
        {
          "internalType": "address",
          "name": "_voter",
          "type": "address"
        }
      ],
      "name": "downVote",
      "outputs": [],
      "stateMutability": "nonpayable",
      "type": "function"
    },
    {
      "inputs": [
        {
          "internalType": "string",
          "name": "_uri",
          "type": "string"
        }
      ],
      "name": "noOfVotes",
      "outputs": [
        {
          "internalType": "uint256",
          "name": "",
          "type": "uint256"
        }
      ],
      "stateMutability": "view",
      "type": "function"
    },
    {
      "inputs": [
        {
          "internalType": "uint256",
          "name": "",
          "type": "uint256"
        }
      ],
      "name": "proposals",
      "outputs": [
        {
          "internalType": "uint256",
          "name": "upVotes",
          "type": "uint256"
        },
        {
          "internalType": "uint256",
          "name": "downVotes",
          "type": "uint256"
        },
        {
          "internalType": "string",
          "name": "uri",
          "type": "string"
        },
        {
          "internalType": "address",
          "name": "proposer",
          "type": "address"
        }
      ],
      "stateMutability": "view",
      "type": "function"
    },
    {
      "inputs": [
        {
          "internalType": "string",
          "name": "_uri",
          "type": "string"
        },
        {
          "internalType": "address",
          "name": "_voter",
          "type": "address"
        }
      ],
      "name": "upVote",
      "outputs": [],
      "stateMutability": "nonpayable",
      "type": "function"
    },
    {
      "inputs": [],
      "name": "viewAllProposals",
      "outputs": [
        {
          "components": [
            {
              "internalType": "uint256",
              "name": "upVotes",
              "type": "uint256"
            },
            {
              "internalType": "uint256",
              "name": "downVotes",
              "type": "uint256"
            },
            {
              "internalType": "string",
              "name": "uri",
              "type": "string"
            },
            {
              "internalType": "address",
              "name": "proposer",
              "type": "address"
            }
          ],
          "internalType": "struct StrawPoll.Proposal[]",
          "name": "",
          "type": "tuple[]"
        }
      ],
      "stateMutability": "view",
      "type": "function"
    }
  ],
  "bytecode": "0x608060405234801561001057600080fd5b506116a9806100206000396000f3fe608060405234801561001057600080fd5b50600436106100625760003560e01c8063013cf08b1461006757806306eb0bbc1461009a5780631bd7af95146100ca5780636509b843146100e6578063850535d914610104578063a462dad414610120575b600080fd5b610081600480360381019061007c9190610ea6565b61013c565b6040516100919493929190610fbc565b60405180910390f35b6100b460048036038101906100af919061113d565b610224565b6040516100c19190611186565b60405180910390f35b6100e460048036038101906100df91906111cd565b610304565b005b6100ee610765565b6040516100fb91906113b6565b60405180910390f35b61011e600480360381019061011991906111cd565b6108c0565b005b61013a600480360381019061013591906111cd565b610958565b005b6000818154811061014c57600080fd5b906000526020600020906004020160009150905080600001549080600101549080600201805461017b90611407565b80601f01602080910402602001604051908101604052809291908181526020018280546101a790611407565b80156101f45780601f106101c9576101008083540402835291602001916101f4565b820191906000526020600020905b8154815290600101906020018083116101d757829003601f168201915b5050505050908060030160009054906101000a900473ffffffffffffffffffffffffffffffffffffffff16905084565b600080600080600090505b6000805490508110156102e85784805190602001206000828154811061025857610257611439565b5b90600052602060002090600402016002016040516102769190611507565b604051809103902014156102d5576000818154811061029857610297611439565b5b9060005260206000209060040201600101549150600081815481106102c0576102bf611439565b5b90600052602060002090600402016000015492505b80806102e09061154d565b91505061022f565b50600081836102f79190611596565b9050809350505050919050565b60005b600080549050811015610760578280519060200120600082815481106103305761032f611439565b5b906000526020600020906004020160020160405161034e9190611507565b6040518091039020141561074d5760005b60028460405161036f9190611606565b9081526020016040518091039020805490508110156104c4578273ffffffffffffffffffffffffffffffffffffffff166002856040516103af9190611606565b908152602001604051809103902082815481106103cf576103ce611439565b5b9060005260206000200160009054906101000a900473ffffffffffffffffffffffffffffffffffffffff1673ffffffffffffffffffffffffffffffffffffffff1614156104b15760016000838154811061042c5761042b611439565b5b9060005260206000209060040201600101600082825461044c9190611596565b925050819055506002846040516104639190611606565b9081526020016040518091039020818154811061048357610482611439565b5b9060005260206000200160006101000a81549073ffffffffffffffffffffffffffffffffffffffff02191690555b80806104bc9061154d565b91505061035f565b5060006001846040516104d79190611606565b90815260200160405180910390208054905014156105b05760016000828154811061050557610504611439565b5b90600052602060002090600402016000016000828254610525919061161d565b9250508190555060018360405161053c9190611606565b9081526020016040518091039020829080600181540180825580915050600190039060005260206000200160009091909190916101000a81548173ffffffffffffffffffffffffffffffffffffffff021916908373ffffffffffffffffffffffffffffffffffffffff16021790555061074c565b6000805b6001856040516105c49190611606565b908152602001604051809103902080549050811015610683578373ffffffffffffffffffffffffffffffffffffffff166001866040516106049190611606565b9081526020016040518091039020828154811061062457610623611439565b5b9060005260206000200160009054906101000a900473ffffffffffffffffffffffffffffffffffffffff1673ffffffffffffffffffffffffffffffffffffffff16141561067057600191505b808061067b9061154d565b9150506105b4565b50600081141561074a576001600083815481106106a3576106a2611439565b5b906000526020600020906004020160000160008282546106c3919061161d565b925050819055506001846040516106da9190611606565b9081526020016040518091039020839080600181540180825580915050600190039060005260206000200160009091909190916101000a81548173ffffffffffffffffffffffffffffffffffffffff021916908373ffffffffffffffffffffffffffffffffffffffff1602179055505b505b5b80806107589061154d565b915050610307565b505050565b60606000805480602002602001604051908101604052809291908181526020016000905b828210156108b7578382906000526020600020906004020160405180608001604052908160008201548152602001600182015481526020016002820180546107d090611407565b80601f01602080910402602001604051908101604052809291908181526020018280546107fc90611407565b80156108495780601f1061081e57610100808354040283529160200191610849565b820191906000526020600020905b81548152906001019060200180831161082c57829003601f168201915b505050505081526020016003820160009054906101000a900473ffffffffffffffffffffffffffffffffffffffff1673ffffffffffffffffffffffffffffffffffffffff1673ffffffffffffffffffffffffffffffffffffffff168152505081526020019060010190610789565b50505050905090565b600080600181600181540180825580915050039060005260206000209060040201905060008160000181905550600081600101819055508281600201908051906020019061090f929190610db9565b50818160030160006101000a81548173ffffffffffffffffffffffffffffffffffffffff021916908373ffffffffffffffffffffffffffffffffffffffff160217905550505050565b60005b600080549050811015610db45782805190602001206000828154811061098457610983611439565b5b90600052602060002090600402016002016040516109a29190611507565b60405180910390201415610da15760005b6001846040516109c39190611606565b908152602001604051809103902080549050811015610b18578273ffffffffffffffffffffffffffffffffffffffff16600185604051610a039190611606565b90815260200160405180910390208281548110610a2357610a22611439565b5b9060005260206000200160009054906101000a900473ffffffffffffffffffffffffffffffffffffffff1673ffffffffffffffffffffffffffffffffffffffff161415610b0557600160008381548110610a8057610a7f611439565b5b90600052602060002090600402016000016000828254610aa09190611596565b92505081905550600184604051610ab79190611606565b90815260200160405180910390208181548110610ad757610ad6611439565b5b9060005260206000200160006101000a81549073ffffffffffffffffffffffffffffffffffffffff02191690555b8080610b109061154d565b9150506109b3565b506000600284604051610b2b9190611606565b9081526020016040518091039020805490501415610c0457600160008281548110610b5957610b58611439565b5b90600052602060002090600402016001016000828254610b79919061161d565b92505081905550600283604051610b909190611606565b9081526020016040518091039020829080600181540180825580915050600190039060005260206000200160009091909190916101000a81548173ffffffffffffffffffffffffffffffffffffffff021916908373ffffffffffffffffffffffffffffffffffffffff160217905550610da0565b6000805b600285604051610c189190611606565b908152602001604051809103902080549050811015610cd7578373ffffffffffffffffffffffffffffffffffffffff16600286604051610c589190611606565b90815260200160405180910390208281548110610c7857610c77611439565b5b9060005260206000200160009054906101000a900473ffffffffffffffffffffffffffffffffffffffff1673ffffffffffffffffffffffffffffffffffffffff161415610cc457600191505b8080610ccf9061154d565b915050610c08565b506000811415610d9e57600160008381548110610cf757610cf6611439565b5b90600052602060002090600402016001016000828254610d17919061161d565b92505081905550600284604051610d2e9190611606565b9081526020016040518091039020839080600181540180825580915050600190039060005260206000200160009091909190916101000a81548173ffffffffffffffffffffffffffffffffffffffff021916908373ffffffffffffffffffffffffffffffffffffffff1602179055505b505b5b8080610dac9061154d565b91505061095b565b505050565b828054610dc590611407565b90600052602060002090601f016020900481019282610de75760008555610e2e565b82601f10610e0057805160ff1916838001178555610e2e565b82800160010185558215610e2e579182015b82811115610e2d578251825591602001919060010190610e12565b5b509050610e3b9190610e3f565b5090565b5b80821115610e58576000816000905550600101610e40565b5090565b6000604051905090565b600080fd5b600080fd5b6000819050919050565b610e8381610e70565b8114610e8e57600080fd5b50565b600081359050610ea081610e7a565b92915050565b600060208284031215610ebc57610ebb610e66565b5b6000610eca84828501610e91565b91505092915050565b610edc81610e70565b82525050565b600081519050919050565b600082825260208201905092915050565b60005b83811015610f1c578082015181840152602081019050610f01565b83811115610f2b576000848401525b50505050565b6000601f19601f8301169050919050565b6000610f4d82610ee2565b610f578185610eed565b9350610f67818560208601610efe565b610f7081610f31565b840191505092915050565b600073ffffffffffffffffffffffffffffffffffffffff82169050919050565b6000610fa682610f7b565b9050919050565b610fb681610f9b565b82525050565b6000608082019050610fd16000830187610ed3565b610fde6020830186610ed3565b8181036040830152610ff08185610f42565b9050610fff6060830184610fad565b95945050505050565b600080fd5b600080fd5b7f4e487b7100000000000000000000000000000000000000000000000000000000600052604160045260246000fd5b61104a82610f31565b810181811067ffffffffffffffff8211171561106957611068611012565b5b80604052505050565b600061107c610e5c565b90506110888282611041565b919050565b600067ffffffffffffffff8211156110a8576110a7611012565b5b6110b182610f31565b9050602081019050919050565b82818337600083830152505050565b60006110e06110db8461108d565b611072565b9050828152602081018484840111156110fc576110fb61100d565b5b6111078482856110be565b509392505050565b600082601f83011261112457611123611008565b5b81356111348482602086016110cd565b91505092915050565b60006020828403121561115357611152610e66565b5b600082013567ffffffffffffffff81111561117157611170610e6b565b5b61117d8482850161110f565b91505092915050565b600060208201905061119b6000830184610ed3565b92915050565b6111aa81610f9b565b81146111b557600080fd5b50565b6000813590506111c7816111a1565b92915050565b600080604083850312156111e4576111e3610e66565b5b600083013567ffffffffffffffff81111561120257611201610e6b565b5b61120e8582860161110f565b925050602061121f858286016111b8565b9150509250929050565b600081519050919050565b600082825260208201905092915050565b6000819050602082019050919050565b61125e81610e70565b82525050565b600082825260208201905092915050565b600061128082610ee2565b61128a8185611264565b935061129a818560208601610efe565b6112a381610f31565b840191505092915050565b6112b781610f9b565b82525050565b60006080830160008301516112d56000860182611255565b5060208301516112e86020860182611255565b50604083015184820360408601526113008282611275565b915050606083015161131560608601826112ae565b508091505092915050565b600061132c83836112bd565b905092915050565b6000602082019050919050565b600061134c82611229565b6113568185611234565b93508360208202850161136885611245565b8060005b858110156113a457848403895281516113858582611320565b945061139083611334565b925060208a0199505060018101905061136c565b50829750879550505050505092915050565b600060208201905081810360008301526113d08184611341565b905092915050565b7f4e487b7100000000000000000000000000000000000000000000000000000000600052602260045260246000fd5b6000600282049050600182168061141f57607f821691505b60208210811415611433576114326113d8565b5b50919050565b7f4e487b7100000000000000000000000000000000000000000000000000000000600052603260045260246000fd5b600081905092915050565b60008190508160005260206000209050919050565b6000815461149581611407565b61149f8186611468565b945060018216600081146114ba57600181146114cb576114fe565b60ff198316865281860193506114fe565b6114d485611473565b60005b838110156114f6578154818901526001820191506020810190506114d7565b838801955050505b50505092915050565b60006115138284611488565b915081905092915050565b7f4e487b7100000000000000000000000000000000000000000000000000000000600052601160045260246000fd5b600061155882610e70565b91507fffffffffffffffffffffffffffffffffffffffffffffffffffffffffffffffff82141561158b5761158a61151e565b5b600182019050919050565b60006115a182610e70565b91506115ac83610e70565b9250828210156115bf576115be61151e565b5b828203905092915050565b600081905092915050565b60006115e082610ee2565b6115ea81856115ca565b93506115fa818560208601610efe565b80840191505092915050565b600061161282846115d5565b915081905092915050565b600061162882610e70565b915061163383610e70565b9250827fffffffffffffffffffffffffffffffffffffffffffffffffffffffffffffffff038211156116685761166761151e565b5b82820190509291505056fea2646970667358221220738d100d219bbc63b864b090ade0da11efba186cdc94b778c21d4c33fc465f1364736f6c63430008090033",
  "linkReferences": {},
  "deployedLinkReferences": {}
}